:020000041000EA
:10000000003000085B0100100D000000BD01001071
:1000100000000000000000000000000000000000E0
:10002000000000000000000000000000B901001006
:100030000000000000000000B9010010B90100102C
:10004000B9010010B9010010B9010010B901001088
:10005000B9010010B9010010B9010010B901001078
:10006000B9010010B9010010B9010010B901001068
:10007000B9010010B9010010B9010010B901001058
:10008000B9010010B9010010B9010010B901001048
:10009000B9010010B9010010B9010010B901001038
:1000A000B9010010B9010010B9010010B901001028
:1000B000B9010010B9010010B9010010B901001018
:1000C0000448054B10B5834203D0044B002B00D0ED
:1000D000984710BD300500083005000800000000FA
:1000E00006480749091A8B10C90FC91810B54910DD
:1000F00003D0044B002B00D0984710BD30050008FA
:10010000300500080000000010B5074C2378002BD4
:1001100009D1FFF7D5FF054B002B02D0044800E0C2
:1001200000BF0123237010BD70050008000000000F
:1001300058560010054B10B5002B03D00449054854
:1001400000E000BFFFF7CCFF10BDC046000000007C
:1001500074050008585600107047FFF7FDFF72B68F
:100160000F4C104DAC4209DA21686268A368043B69
:1001700002DBC858D050FAE70C34F3E70A490B4ABF
:100180000020521A02DD043A8850FCDC0848094974
:100190000860BFF34F8F00F0B5F800F047F8FEE7B6
:1001A00044B201105CB2011070050008F41200089E
:1001B0000000000808ED00E0FEE7FEE700B50420BF
:1001C0007146084202D0EFF3098002E0EFF30880A5
:1001D000043002F0AFF8FEE7044B10B51B68002BAB
:1001E00001D000F013FA00F0C9FA10BD4007000872
:1001F000002313B506220721FA240B48009301F0CF
:10020000DDF9640000220721074801F0FBF9200016
:1002100002F066F801220721034801F0F3F92000FB
:1002200002F05EF8EEE7C0468006324010B562B6D6
:1002300002F0A2FD002801D002F0BAFA0B4C0C48E3
:1002400063680C49186002F017F8200000F00CF900
:1002500000F00EF900F010F9074800F0CBF805F0B7
:10026000E7FA002002F0D6FBF9E7C046C00000081C
:10027000B0490010D90100100000021010B5002094
:1002800001F00AFB10BD704770B5002001F05AFF65
:10029000041E28D0144B186001F064FC411C20009F
:1002A00002F098FD114B0400186001F043FC411C62
:1002B000200002F08FFD04000D4B013C18600D4939
:1002C000200002F087FDFA210B4D013028708900D3
:1002D000200002F07FFD094D01302860002001F070
:1002E00031FF074B186070BDD0000008D400000833
:1002F000C800000840420F00DC000008D8000008D9
:10030000CC00000810B5214800F0FCFCB022E02130
:1003100030201F4CD200A35889005B005B08A3501B
:1003200063588343635080235B04A350194B1A4ADC
:10033000E250A02204339201E250FF22174BE25018
:1003400002F022FDC02201215200A3588B43A3508A
:10035000FFF799FFFFF798FF114B03201A6813006E
:10036000BA33198807234B43126A80219B18002255
:10037000DA605A600B4A01F009FB0B4801F07AF988
:100380000A4801F0B3F901F001F810BDEC49001082
:100390000000264084050000010002008C050000DA
:1003A0004407000830050008A0050008B8490010FF
:1003B000024BD86F032318407047C0460400214009
:1003C00010B500F04AF80749074BCA6F1A40074BAF
:1003D0001343CB67102306490A681A42FCD000F089
:1003E00040F810BD04002140FCFF00000100FA05A8
:1003F0008800214070B50F4D060000F02EF8EB6F1D
:100400000400DB439B0701D1FFF7DAFFB0230A4A60
:100410009B00D650EA6F094B09491A40094B134318
:10042000EB6710230A681A42FCD0200000F019F88C
:1004300070BDC0460400214000002140FCFF0000C8
:10044000880021400300FA050230800803D0013003
:100450000238FCD1C046C0467047EFF3108072B638
:10046000704780F31088704710B500F05FF810BD3A
:1004700010B500F0B7FB10BD10B500F0BFF810BD0F
:1004800010B507F05FF810BD10B50EF0BDF810BD47
:1004900010B507F06FF810BD10B505F0CDF910BD1F
:1004A000F8B50D00012903D0082934D01C48F8BD47
:1004B000032001F011FB1B4B9842F7D000F010FB1A
:1004C0000128F3D00220FFF7E7FF0700FFF7C5FF81
:1004D000154E306005F0B4F90400062801D1002063
:1004E000E5E7022F0DD1033CBC433800E4B2FFF72F
:1004F000C7FF002C01D10028F1D03068FFF7B1FF11
:10050000D4E72800FFF7BCFF022CF6D00028F4D176
:1005100002F014F9F1E7044B1868FFF7A2FFDEE7D9
:10052000FF004200010188002C07000810B50028D8
:1005300005D0044B186000F097FB002010BD024866
:10054000FCE7C046280700080100160070B5284DDA
:1005500094B02E68002E48D001AC4C22002120001F
:1005600004F0FFF90A21336869449A8AA2815A8902
:1005700022839A8962831F4AA2831A89CA87591CD7
:10058000C87F13A908706946987F0531C877694606
:10059000D87F0631C8775B7FE377D20701D505F0B6
:1005A00029F92B681B681B899B0701D505F02AF9DF
:1005B0002B681B681B891B0701D505F01FF907A8CD
:1005C00005F06EF900280ED12B681B689A695968EE
:1005D0006260002904D026302222684404F0AAF97F
:1005E000200005F031F914B070BD0348FBE7C046A8
:1005F0002807000803040000FF00160010B5024899
:1006000002F00EF810BDC046E000000870B5524E72
:100610003368002B7DD09B68002B7AD002242342C4
:100620006AD14E4D4E4A0121A85804000C400842A0
:1006300002D0DC090C40E401A958890703D5042144
:100640000B4200D00C43AB589B0660D5FFF720FF50
:10065000444BEA58002A5AD0EA58120725D5424A94
:10066000A958C90605D5316888684021084200D0DC
:100670000C432021A858084204D030688068084202
:1006800000D00C4339496958890705D53168886815
:100690000821084200D00C43AA58520605D53268FA
:1006A00091681022114200D01443EA58920714D5E1
:1006B0002F4AA958090706D5316888688021490062
:1006C000084200D00C43AA58D20606D53268916879
:1006D00080229200114200D01443EB58DB0716D55C
:1006E00081235B01EB589B0611D533689A68802300
:1006F000DB001A420BD01C4333681A79002A09D157
:100700001C4A1268002A05D02000904701E0002C06
:10071000F2D170BDDC606424174B31681A68087C24
:100720001300BA331B884343106ABC3212681B188B
:100730009A181268002A06DA002CEAD0012001F08B
:10074000E7FD013CE8E7002CE3D08022497C52021F
:100750008A40120C9A60DCE74007000800003C4029
:1007600068F0010008100000A8100000341100001B
:1007700038100000380700084407000810B5FFF7DC
:1007800083FE044B1B68002B02D0002800D0984742
:1007900010BDC0463007000810B5024B1B689847D3
:1007A00010BDC0463407000870B5041E08D00C4BBD
:1007B0001B68002B04D04578012D02D0FF2D09D0F5
:1007C00070BD82681A60FFF75FFDFFF7BFFE2571FD
:1007D000A060F5E7034B186001230371F0E7C04602
:1007E0003C07000840070008002805DB1F231840CD
:1007F0001E3B8340014A13607047C04600E100E0A1
:10080000002809DB1F2318401E3B8340034AD3679F
:10081000BFF34F8FBFF36F8F7047C04604E100E016
:1008200010B500F0CDFA0221054A064BD150064B17
:100830001B685B681B680020185EFFF7D5FF10BDC2
:1008400000003C4078F001003C070008042070479D
:10085000124B1B681B685B8CD8B21B0ADAB20128EA
:1008600005D10020834201D0742B0AD170470228A1
:100870000CD10138002BF9D0683A53425A41D0B21A
:10088000F4E77C3B5A4253415800EFE7002803D17C
:10089000442BEBD10330E9E70020E7E73C070008F1
:1008A000034B1B68181E01D01B6818787047C046A0
:1008B0003C070008F0B5834CA544099380230C0045
:1008C000059008925B05994200D2F6E002F064F9C7
:1008D000051E38D002F068F90390022844D10520A3
:1008E00001F0D0FF784B05009842F8D00123049323
:1008F000F0231B06E3185E0A06937602002103200C
:1009000001F06AF8071EF9D180235B05F618019003
:100910003C002C4304D1019B089A934228D3270022
:10092000002801D001F0FEFC0021032001F094F822
:100930000028F9D1002D00D191E0644F38008B23BD
:100940009B009D44F0BD02F089F9052304900393B8
:100950000028CDD1012002F0B1F95B4B050098428F
:10096000F8D005230393C3E7012300250493BFE7D1
:10097000802233009200B2180AA902940792F02252
:10098000069F12069A18BA4237D3089A019FBA42B4
:1009900033D9059F3A1E01D0019FD75D029A0F708F
:1009A000002A05D11A78D21B571EBA41D2B2029240
:1009B000019A01320192079A013301319342DED14B
:1009C000029B002B49D0099B0036002B3FD1C82742
:1009D000300000F0E3FC0400012001F099FCA423A6
:1009E000A422DB032340D203934209D1013F002F0D
:1009F000EED12700079E02988AE71A780A70DAE794
:100A0000334B9C425BD100F03DFD324B04009842D9
:100A1000F9D0002813D1C8270AA9300000F036FD0C
:100A20000400012001F074FCA423A422DB03234072
:100A3000D203934203D1013F002FEDD1D9E7244BDC
:100A40009C42D6D100F01EFD224B0400F8E7300096
:100A50000AA900F0E1FC0400CBE70290C9E702F02C
:100A60009BF8002809D0039B022B06D1022001F03D
:100A700009FF154B05009842F8D002F003F9002851
:100A800009D0049B002B06D1002002F017F90E4B71
:100A900005009842F8D0002D00D04EE7002F00D17D
:100AA0004CE704239F430C4BFF187B1E9F411223EE
:100AB0007F421F40094BFF1840E7084F3EE7002CDC
:100AC00097D1A8E7D4FDFFFF0400420012001600F2
:100AD0000100500002005000FEFFADFF01001600B3
:100AE00010B50024084B1B683E331B78A34201D885
:100AF000002010BD200001F07BF8032801D0013454
:100B0000F0E70120F5E7C04644070008014B1868EC
:100B10007047C0469C05000810B501F019F8FD2388
:100B20001840013843425841C0B210BD10B501F021
:100B30000FF810BD10B501F069F910BD10B501F046
:100B400009F910BD70B5040003200D00160000F077
:100B5000C3FF054B984205D032002900200001F068
:100B60005FF970BD0148FCE70101880003004A00FD
:100B700010B501F00BFA10BD10B501F0C9FB10BDA6
:100B8000064B10B51B685B68002B06D01B68002B5A
:100B900003D00020185EFFF727FE10BD3C070008B9
:100BA000064B10B51B685B68002B06D01B68002B3A
:100BB00003D00020185EFFF723FE10BD3C0700089D
:100BC00010B5FFF74AFC10BD10B5FFF74AFC10BD89
:100BD00010B501F0B3FD10BD10B5002101F0FEFF0E
:100BE00010BD000010B503220020054900F0F4FDFF
:100BF000431E9841034B40421840034BC01810BDA0
:100C0000A9070010FEFFE9FF020016000A0010B558
:100C1000002809D0FD235B00994205D2FA3B034925
:100C2000FF3BFFF747FE10BD0148FCE70708001631
:100C3000010016000A0010B5002808D0FD235B0053
:100C4000994204D2034903F075FE002010BD02480A
:100C5000FCE7C046070800160100160010B500208A
:100C600000F040FE10BD0000014B18607047C04608
:100C70003C07000810B5002000F01AFE10BD00006F
:100C8000074B10B5012219600100002000F0A4FDFF
:100C9000002803D10200034900F09EFD10BDC046AC
:100CA000340700089907001070B50B0015000021EB
:100CB0000200012000F04EFD041E03D02900002098
:100CC00000F09EFD200070BD0388AE205843044B09
:100CD00010B5C0180C000A2102F07CF8208010BD6D
:100CE00091FCFFFF0022835E044810B558430C00BE
:100CF000034902F0F9F8BD30208010BD4B280000F8
:100D0000F0D8FFFF014B18607047C0464407000849
:100D1000F8B58023FA270E0001251B020C4C18435E
:100D20000004E061BF00236C2B4208D1002F01D1E9
:100D300008480CE02800013F01F0EAFAF3E7002F31
:100D4000F6D00020236C1D432564E36A3380F8BD90
:100D500000003C400400160070B5FA2601240C4D3A
:100D600000040843E861B6002B6C234208D1002E32
:100D700001D108480AE02000013E01F0C9FAF3E77A
:100D8000002EF6D000202B6C1C432C6470BDC04696
:100D900000003C400400160010230449044A88580F
:100DA00003438B500022034B1A60704700003C4005
:100DB00070F001009C05000810B5FFF7EDFF10BDB5
:100DC000F0B51B4B9DB001A90A00180070C870C295
:100DD00070C870C270C870C214001A00200024329B
:100DE000E0CAE0C0E0CAE0C0E0CAE0C002004833A8
:100DF0000500C1CBC1C2C1CBC1C2C1CBC1C20D4E66
:100E0000336898690130FF3000F07EFB33682100C1
:100E100098698130FF3000F077FB336829009869CA
:100E200080239B00C01800F06FFB1DB0F0BDC046D2
:100E3000AC4A001044070008F0B589B003930EAB2C
:100E40001B780490009105920293012800D993E148
:100E5000032900D990E1039B0C3B872B00D98BE140
:100E6000FB2A00D988E101F087FF002801D001F0BA
:100E70009FFC0123C14FC24D7A591A4204D0C14A86
:100E8000BA581A4200D0CDE1FFF79AFFBE4BBF4AD5
:100E9000FA50A023039A1B031343BD4ABB50BD4B1A
:100EA000BD4AFA50BD4B5A6801231A4200D0BBE13B
:100EB000BB4ABA5812073ED53A68BA495B030B439E
:100EC0001A433A6001F068FE002843D0029B002BD1
:100ED00040D10320012101F081FE012001F09EFE9E
:100EE0007E59B14B402033437B5101F011FA01236D
:100EF000AE4C3A591A4208D140203B5101F008FA51
:100F0000032340203B5101F003FAA94BA94C1E409A
:100F100001963443FA267C51F600A74B1B689A6968
:100F2000A64BD358102213421FD1002E18D1A44C27
:100F3000200009B0F0BD01F01BF9A249884202D897
:100F40003A68A14BBCE701F045FF3A68431E01280F
:100F5000F7D0B2E703239D4AB9580B43BB50BFE714
:100F60000120013E01F0D4F9D7E7002EDFD008239D
:100F7000974A0120B9580B43BB5001F035FB0028BC
:100F800002D0029B012B02D1924C019B1C430126F3
:100F9000914B1C4034437C51904C7A4BFB5833426C
:100FA00006D1002CC3D03000013C01F0B1F9F4E7C8
:100FB000002CBCD00B26C02189484901FFF7CCFE8C
:100FC000041E05D106AB8648991DFFF7A1FE04005B
:100FD000013E002E5FD17A4C01F0C4F9212842D0A5
:100FE000B027804E7F05BB5B002B3CD0002C9FD1EF
:100FF00006AB9D1D29007C48FFF78AFE041E00D029
:1010000096E7B95B288860344908A0432140014332
:101010007648BA5B0140F020D201C0000240114383
:10102000734ABB5B1140C022DB00520113401943DD
:101030006D482980FFF790FE041E00D078E7290054
:101040006C48FFF765FE041E00D071E7FF23C02245
:10105000B95B68480909890119402B8893431943F2
:10106000FFF77AFE0400002C00D061E7059B62497F
:101070005B001943614889B2FFF76EFE041E04D17C
:101080005F496048FFF768FE0400039B580180B287
:1010900001F03EF94CE7002C9ED1C02206AB9D1D0D
:1010A0002B885201934200D085E729005648FFF76C
:1010B0002FFE041E90D180262B88F600334232D0BA
:1010C00029005248FFF724FE041E00D084E76A4638
:1010D00012882B880292049A012A40D10099013289
:1010E00016000190012904D802990E00521A92B2FA
:1010F00001923F22702193431943454B009A31439B
:10110000D340444A41481360FFF726FE0322029B66
:1011100004009B1B1340019A96001E433E4BB6B23F
:101120002E80FE5058E70B23019331003648FFF71D
:1011300013FE041E04D129003348FFF7E9FD040023
:10114000019B013B0193002B00D144E7002C00D010
:1011500042E780222B88D2009342E6D1B0E7009A82
:1011600001260190002A01D10196009E7F221021C4
:1011700093431943294BC1E7294CD9E600003C4071
:10118000A0F00100B4F00100A4F00100060000018D
:10119000A8F00100ACF0010001000100FC003C409F
:1011A00070F00100041A008030000300B0F001006C
:1011B000EFFFFEFF2000020044070008104000007F
:1011C0000400160000093D00040A0080C4F001007C
:1011D00068F0010028000200FFFFFBFFF07E0E0018
:1011E000021E000016180000071E00007FF5FFFF1A
:1011F000FFE7FFFF061E000001100000081E0000B0
:10120000376800000F1E0000031E0000091E0000CA
:101210000048E8019C05000864F001000024F40087
:1012200001001600014C83E6014C81E60300160024
:101230000200160013B5002808D000240378427875
:10124000C17880780094FFF7F7FD16BD0048FCE7F1
:1012500001001600044B1B681A00BA3212881B6A80
:101260005043C0187047C04644070008A02300B58B
:101270001B06984226D015D8802825D00AD81028D9
:1012800024D0402824D000280BD0154809E0A42001
:10129000C00306E08022134B520090421CD09842BB
:1012A000F3D100BD104B984218D0104BC018042841
:1012B000EBD801F07BFDECEA0F0305000C48F0E7EA
:1012C0000C48EEE70020ECE70B48EAE70B48E8E7BC
:1012D0000B48E6E70B48E4E71800E2E7A020D7E771
:1012E000FF00520006005200090000A0FFFFFF0FA0
:1012F000020052000300520005005200010050009D
:10130000020050000100520010B50020FFF7A2FFBC
:101310000A4B1C682300BC331B68C0180368002BF1
:101320000ADB074B1868FFF7A1FF012263689A6088
:101330009A68002AFCD110BD0248FCE74407000867
:1013400048070008020050000D4B10B51860002837
:1013500004D0FE235B42038000234380094B1B68BB
:101360001A0050321278002A08D051331B78002B13
:1013700004D002220020044900F02EFA10BDC0461D
:101380005807000844070008BD02000810B50248CD
:10139000FFF7DAFF10BDC0464005000810B5C305D1
:1013A0000400002B29D1FEF76FFFE022144B5205F9
:1013B0001A60144A1278002A04D080221968520058
:1013C0000A431A605C6000249C60DC600E4B1B6862
:1013D000543318780100A0420CD000F0D6FEFA2158
:1013E000890001F0F7FC0100084801F0F3FC084B0C
:1013F000C118200003F0D4FA10BD0648FCE7C0462F
:10140000480700080B0000164407000860F590002C
:101410009808000006005200C30570B505000C00D6
:10142000DE0D002B20D100291ED0FEF72DFF0F4B23
:101430000F4A1A605E609D60DC600E4B1B68523381
:10144000197800290BD000F0A0FEFA21890001F0E4
:10145000C1FC0100084801F0BDFC084BC118802008
:10146000400003F09DFA70BD0548FCE748070008FE
:101470000001000544070008C0EA210148260000D9
:101480000600520010B5FFF73FFF10BD70B5C30551
:1014900005000C00002B2AD1002928D0FEF7F4FE0D
:1014A000C0228021134BD2041A60134A49001278DB
:1014B000002A02D01A680A431A6059609D60DC60F5
:1014C0000E4B1B6853331878011E0DD000F05DFEE3
:1014D000FA21890001F07EFC0100094801F07AFC44
:1014E000E1239B00C118002003F05AFA70BD0548A3
:1014F000FCE7C046480700080B0000164407000838
:10150000808D5B000600520030B5002830D00029E5
:101510002ED0184BCD681A6893695469C31ADB0939
:101520001B011B1914008134247824182560140031
:10153000823424780D6924182560140083342478BB
:101540004D69241825601400803424788D6824188F
:1015500025604C688432846112788C69121814609A
:10156000CA691A600A6A5A600B680360002030BDBD
:101570000148FCE74407000801005A000E4B10B573
:101580001C68A369C31ADB0960691B011B181F20B3
:101590000240032907D8C90088408A401C68844358
:1015A00022431A6010BD0439C90088408A405C6833
:1015B000844322435A60F5E744070008F8B51E004B
:1015C00006AB15001A7807000C00FFF7D7FF0122C1
:1015D0001100A1403B6816408B430F210800A64034
:1015E000A400A0400D40A5401E43054B3E601B6873
:1015F00081331A78BA18136883431D431560F8BD08
:101600004407000801238B40002A01D14360704742
:101610008360FCE7064B1B68BC331B68C3181B6860
:10162000002B03DA89B24160002070470148FCE7D3
:101630004407000801008A000368002B04DA89B21D
:10164000C2608160002070470048FCE701008A000A
:10165000064B1B68BC331B68C3181B68002B03DADE
:10166000C36800200B6070470148FCE7440700088E
:1016700001008A00024B1A68002A00D118607047E6
:101680005C070008F0B52C24154E444330681F0059
:101690000019FF241E0A26402740124C1B0C256807
:1016A00007602C6A46608360BA352D886F433F1906
:1016B0000761370080377F01E7190B4D76014761DD
:1016C000A4191F043B436419236000238361059B15
:1016D000C2610162002B01D01B888381F0BDC0462E
:1016E0005C0700084407000808100000F0B504007B
:1016F0000026236987B00268276A41680293A368BD
:1017000004AD03971932676AC0682B80AA70029BE8
:10171000A26AEE7005910095E16AFFF7B3FF3B0006
:101720003200310003980096FFF7ACFF2800216BD0
:1017300000F0A2FD0022AB5EB34206DB1F22134085
:101740001E3A9A401300024A136007B0F0BDC0462B
:1017500000E100E0F0B585B003931B4B16001C6858
:101760002C2358434B4320180769E418002F27D037
:10177000A569002D26D13B68002B23DA134B1B688B
:1017800034331B780193436801996068029301F038
:10179000A7FB01228A40336812049BB213433360D3
:1017A0000123FE60A361039B01996362029801F02B
:1017B00097FB01238B409BB2BB60280005B0F0BDB6
:1017C000034DFAE7034DF8E75C07000844070008FB
:1017D00004028A0007028A002C2310B54343064CFA
:1017E0002068C018C369934204D9036A002092009C
:1017F000D15010BD0148FCE75C0700080A028A00CE
:101800002C224243024B1B689B1899627047C046CA
:101810005C07000873B5002642690400D56801968C
:101820002B0CB34221D01B0413601368194B0069C1
:101830001B68BC331B68C3181B68B34215DA01A9C7
:10184000FFF706FFB0420CD10198E26903681E0C55
:10185000DBB29A4205D9226A9B009B58002B00D02C
:10186000984731002069FFF7D5FEADB2002D09D0B1
:1018700063691D6000251B68636AAB4205D0984709
:101880006562A56163691B6873BDA36A002BF8D00C
:101890009847F6E7440700082C2310B54343034A52
:1018A0001068C018FFF7B6FF10BDC0465C070008FF
:1018B0002C220A4B42431B689B180C229B5E002B78
:1018C0000ADB1F2213401E3A9A401300044AD367D2
:1018D000BFF34F8FBFF36F8F002070475C07000886
:1018E00004E100E02C22084B42431B689B180C22A9
:1018F0009B5E002B06DB1F2213401E3A9A4013000A
:10190000024A1360002070475C07000800E100E015
:101910001A4B70B51A680C00130033331B788342DE
:101920002AD9002928D00D681F212B000B400D4219
:1019300022D11100BA310988126A48431900104DAA
:101940008018286022685209934210D30021FFF7C3
:1019500061FE002122002868FFF76EFE011E04D1FF
:101960002868FFF757FE002800D0064870BD62685F
:101970009E00B1500133E5E70348F7E7440700084C
:101980006007000801018A0003018A000B0010B5FE
:10199000002A0DD1002914D10B4A0C4C11680A0001
:1019A000BA321288096A424352182260180010BDE8
:1019B000002906D006490B604A60FFF7A9FF030023
:1019C000F4E7044BF2E7C04644070008600700084C
:1019D0004405000803018A00F7B51B4F04003B686B
:1019E0000E00002B2CD0DB681A6882422AD9002511
:1019F0005B680193A94202D1FEF72FFD050038680C
:101A00000368002B1ADA1F23012223409A4064093D
:101A1000A1001400019B59180B681C401A420BD1FD
:101A200013430B600021FFF7F5FD002E02D12800C3
:101A3000FEF717FD2000FEBD044CF3E7044CF4E76D
:101A4000024CF7E7034CF5E7600700080201880045
:101A50000301880004018A00F7B51B4F04003B68AE
:101A60000E00002B2BD0DB681A68824229D9002592
:101A70005B680193A94202D1FEF7EFFC05003868CC
:101A80000368002B19DA1F23012223409A406409BE
:101A9000019BA4001C1921680A420CD091432160CB
:101AA00000240021FFF7B6FD002E02D12800FEF72A
:101AB000D8FC2000FEBD054CF3E7054CF4E7034CD1
:101AC000F7E7044CF5E7C04660070008020188000C
:101AD0000301880004018A000C4B1B68002B11D005
:101AE000DB681A6882420FD959681F2342091840DF
:101AF0001E3B8340920050581840431E9841044BAF
:101B0000C01870470348FCE70348FAE7600700087D
:101B1000000188000201880004018A00044B103093
:101B20001B6880021B69C0580F2318407047C046CD
:101B300044070008054B1B681A0088321B681268AE
:101B40009B181868000AC0B27047C04644070008D6
:101B5000A023034ADB00D058032318407047C04637
:101B600000002640044B1B681A0088321B6812686C
:101B70009B181868000E704744070008034BE030BC
:101B80008000C0588006800F7047C0460000264085
:101B9000024B18694007C00F7047C046000027403D
:101BA0000449054A80058B58800D9B0A9B0203431C
:101BB0008B507047000026403C050000A6220549D6
:101BC000D2008B580220DB439B0702D001238858A8
:101BD000184070470000264010B5FFF7EFFF0023C4
:101BE000022801D1014B1B68180010BD70070008C6
:101BF000084A83009B18D022920098580722104070
:101C0000042806D1C02292009B581F22FC301340AA
:101C1000184370470000264010B5FFF7E9FF03287E
:101C200006D80138022824D801F0CAF80F1215008E
:101C30001223FF33984215D01423FF33984215D056
:101C4000033B984209D0002010BD0B4B1868FBE7FE
:101C5000FFF7C2FFF8E7094BF8E7094A094BD058EC
:101C6000C00F01E0FFF794FFC003EDE7044A064B05
:101C7000F5E70648E8E7C0466C0700089C05000841
:101C8000000026400C0500003C05000000127A0010
:101C9000B023154ADB00D35810B59903DB01DB0FE5
:101CA000890BC371114B0160D3580F24D904DB0198
:101CB000DB0D0381B123DB00D358C90C81801900EF
:101CC0002140817219092140C172D9029B009B0FEA
:101CD0008373074BC90CD35881815A05DB01520F1E
:101CE000DB0D8271038210BD0000264084050000D8
:101CF0008C0500008030034BFF308000C058C00FBF
:101D00007047C046000026400F4B421E1B683F3301
:101D10001B78934216D980307F220C4BFF30800015
:101D2000C3581F201A400A701A0A02404A701A0C3F
:101D300002408A701A01C24000209B009B0FCA70AB
:101D40000B7170470248FCE744070008000026407A
:101D500001004A00F7B50022244B07001A70244BFB
:101D600008001B681A00BA32118807224A431B6A0E
:101D7000D2181368002BFCDA1E4B1F491C68002385
:101D80008C4206D11D4B1E491B685B1859424B41C2
:101D9000DBB2A42100251B4CC90061582E00556000
:101DA000AB4216D00B0201931E0AAB4211D0164B68
:101DB0001C68AF420FD122003B00390001F0A0F9AE
:101DC0003B00019C620A80185941320001F078F909
:101DD00006003000FEBD32002B00290001F090F912
:101DE0002B006208801859412200EFE768070008BD
:101DF00044070008080126401F1F00000401264078
:101E0000C3C2FFFF0000264064070008024A034BDC
:101E1000D058C00F7047C046000026401C05000087
:101E2000F7B51600C22203000091D200904200D301
:101E30008DE0964200D38AE080225204914200D382
:101E400085E00120434A1070FF2B12D80F24250093
:101E500023400630FF2E27D8FF2236011640E0220D
:101E6000D2020243F0200543F02033430003044331
:101E700025E0A022D200934205D20F24234018006F
:101E800000252B00E6E7C022180AD200934204D2B4
:101E9000FF241B0123401843F2E7F0221B0212012A
:101EA00013402D4C1843EBE7A022D200964239D2C2
:101EB000F02736043F033E4032003C4302432748AC
:101EC000072607683800BA3000884643386A01960A
:101ED00030180668002EFCDA214806782148002ECA
:101EE00003D0214E8659002E2FDA204E2049316032
:101EF000204E21493160A321C9004658AE431E43FC
:101F00001E4D46504359A34313434351009A1C4B63
:101F10001A60154BC25000203B6A019AD318002268
:101F20005A60FEBD320A12040243C020C00086423D
:101F300007D2F020360500040640FF20324300049B
:101F400095E736060F48324391E70F48E4E70E481D
:101F5000E7E7C046680700080F0F000044070008C5
:101F600074070008000026401C05000008012640F8
:101F70001F1F0000040126403D3D00001405000025
:101F80006407000800000F0F01004A001B4B70B5EA
:101F9000196880231B02CB18834206D20026184BF7
:101FA000C418B4420AD160421FE080231B025A1AAF
:101FB000824220D91C1A834216D00126114A124BA4
:101FC000D0588005850D4808001900F003FF040073
:101FD000002E0BD080234019DB00984200D30B4821
:101FE000FFF7DEFD002EDED0200070BD281AC343AF
:101FF000DB171840F4E70024D5E7C046FC000008D2
:102000000080FFFF000026403C050000FF030000A9
:10201000F0B589B003AD2800FFF73AFEB0230026E3
:10202000164ADB00D358B34224DAAB7B022B21D013
:10203000AC88B4421ED03000ED79039FFFF7ECFD71
:102040002200330031000190681C01F059F80C00A7
:10205000050033003A003100019801F051F8E6071D
:102060006A0832436308801859412A00230001F0AE
:1020700027F80600300009B0F0BDC0460000264039
:10208000F7B5234B06001B683F331B78002B08D0A5
:1020900000283BD0834204D36946FFF735FE041E77
:1020A00001D0002632E03000FFF724FE2300002894
:1020B00005D06B461C79023C23005A1E93416A46A8
:1020C000177854789578002BEBD0002CE9D0002DB0
:1020D000E7D03000FFF7A0FD002306002A00200013
:1020E000190001F00DF800230C0005003A00300043
:1020F000190001F005F8E6076A0832436308801802
:1021000059412A00230000F0DBFF06003000FEBD2D
:102110004407000810B5041E04D1FFF779FF00281A
:1021200006D008E0064B1B683F331B78834203D27E
:102130002000FFF771FD10BDFFF7A2FFEFE7C046DB
:102140004407000870B50500FFF718FDE035074BA0
:10215000AD000400E8580F231840FFF7DBFF012310
:10216000A3405B081818E04070BDC0460000264040
:1021700010B50020FFF7E6FF0400FFF7F3FC411C59
:102180004808001900F026FE10BD10B5FFF7F0FF5B
:102190000400FFF7CFFC411C4808001900F01AFEAC
:1021A00010BD000030B5FF2503242A000440E400E0
:1021B000A24089012940D243A14083B200280ADB12
:1021C000C0240B4B80088000C018A40003591340A2
:1021D0000B43035130BD0F200340083B05489B08CB
:1021E0009B001B18D86902400A43DA61F2E7C04637
:1021F00000E100E000ED00E0144B30B51B6807245F
:102200001A002C3212781F2A15D882081500A5430F
:102210002C1E0FD103342040A04081401B68920047
:1022200020339B180A00FF2181401C686240114046
:102230006140196030BD1A68802320401B060343AB
:1022400080208001091889008B50F3E744070008BB
:10225000064B10B59A68064C10308300A24202D19A
:102260009858995010BD034AD058FBE700ED00E0A4
:102270000000000800000010F7B504000E00002860
:1022800001D1144C17E00023C55E134B8178134F26
:102290000193002D11DB2800FFF7AEFF61682800D5
:1022A000FFF780FFBB68019A0024934203D13100FD
:1022B0002800FFF7CDFF2000FEBD08B26168FFF7E0
:1022C00071FFBB68019A9342DBD131002800FFF710
:1022D000BFFFD6E7010056000000000800ED00E057
:1022E00070B504000120094E4042316800F072FDD3
:1022F00005003068AC4203D86043FEF7A5F870BD16
:102300006843FEF7A1F8641BF3E7C046D800000855
:1023100010B5034B1B785843FEF796F810BDC04626
:10232000DC0000080122024B1B685B689A60704762
:102330004407000802680A4B10B51A6042685A60E8
:1023400082689A60C268DA6002691A6142695A61F9
:1023500082699A61C269DA61FDF74AFF10BDC04621
:1023600050050008B0235B055A782120002A01D0CF
:102370005878C0B27047B0235B059A89002A02D012
:10238000988980B2704780204000FBE770B51E4EF0
:10239000C02533682D011A009C321B6812689B18F7
:1023A0001C68FFF7E8FF80232C405B0098420ED1A9
:1023B0000020FFF7B3FB0400FFF7D4FF0122130056
:1023C000222801D8634263411340180070BD33686E
:1023D0000E4E19009C311A680868121810683040B7
:1023E00010601A68086812182800166860403043A8
:1023F00010601B680A689B1818682840001B431E61
:102400009841C0B2E2E7C04644070008FFF3FFFF6F
:1024100070B5FFF7B0FF8023194A5B00984215D1D1
:1024200011680F240B0002229C3308681B68C01837
:102430000368A343134303600800A0300B680168DE
:102440005B181968A1430A431A6070BDB024126872
:102450000C4B10006405E3580B4D9C302B40C025FD
:1024600011680068AD0009180868284003430B6034
:102470001100A03113680A689B18044AA258E3E7C8
:102480004407000848180000FFFCFFFF4418000044
:1024900070B5FFF770FF8023154A5B0098420DD19D
:1024A00013681A009C3212681B689B181968114A3D
:1024B00011408022D2010A431A6070BDB024126814
:1024C0000D4B10006405E3580C4D9C302B40C0258B
:1024D00011680068AD0009180868284003430B60C4
:1024E0001100A03113680A689B18054AA258E3E757
:1024F00044070008FF8FFFFF50180000FFFCFFFF9C
:102500004C18000010B5FFF736FF8023124A5B001D
:1025100098420DD113681A009C3212681B689B18F0
:1025200019680E4A1140C022D2010A431A6010BD38
:10253000B02112680A4B4905CB58110009489C315B
:102540000340C020096812688000521811680140D9
:102550000B431360EBE7C04644070008FF8FFFFF03
:102560001C180000FFFCFFFF70B5FFF704FF80237D
:102570001A4A5B00984215D111680F240B00032200
:102580009C3308681B68C0180368A34313430360A7
:102590000800A0300B6801685B181968A1430A4362
:1025A0001A6070BDB02412680D4B10006405E3582A
:1025B0000C4D9C302B40C02511680068AD000918F7
:1025C0000868284003430B601100A03113680A68B3
:1025D0009B18C1225201A258E2E7C04644070008F6
:1025E00024180000FFFCFFFF02000020824202D1FD
:1025F000094B5869C00F094B1B6847331B78002BE8
:1026000009D0012A07D1044B10009969490001D46F
:102610009869C00F1040704700002640440700082A
:10262000030070B500281BD0C268101E18D01A68AD
:10263000101E15D01C79164DA4006259111E09D127
:1026400063515A611A6119E0067E1A7E964200D8DB
:10265000010002005069002803D09A42F4D1002002
:1026600070BD9A42FCD00A69002A09D11E7E087EFC
:10267000864205D259611A612B510B610120EFE7A7
:102680004A6919615A61002A00D013614B61F5E76C
:10269000B8070008254B73B586000D00F4580429CF
:1026A00001D0012925D100200EE0A3682B420AD1D8
:1026B000E36829001A685B68684601930092236802
:1026C00098471B4B1C606469002C0AD0194B984238
:1026D000EBD1012DE9D1164A174B126815489A51D2
:1026E00076BD012DFCD1134B9842F4D0124B9C5176
:1026F000F6E7022914D026006469002CFBD10020E3
:10270000002EEDD0B3682B4208D1F36829001A6877
:102710005B68684601930092336898473669EFE733
:10272000034B1B68181EDBD01E69E8E7B8070008DA
:10273000B4070008FF004200A007000870B5194C5C
:1027400006002368002B1AD1FDF787FE23680500D9
:10275000002B20D10421144A13698B431361012EED
:102760001ED030BF2800FDF77CFE23680024A34262
:1027700003D008212000FFF78DFF200070BD01214C
:102780000020FFF787FF0028DED002210020FFF79E
:1027900081FF064CF1E704210020FFF77BFFD9E71A
:1027A00020BFDFE7B807000800ED00E0FF004200AF
:1027B00010B5FDF752FEE822064B074C596892010E
:1027C00021400A435A605A6822405A605B68FDF70C
:1027D00048FE10BD00002640FF00FC0FF8B50400C5
:1027E000FFF7C0FD85B2FFF7C6FD07000020FFF729
:1027F00095F980235B00002811D19F4213D1222D2F
:1028000011D88025194B1A4A1B686D045968240693
:102810008B582C40174D2B401C438C50F8BD9F42C9
:1028200001D1222D1AD9114E3268156A9F4217D153
:10283000631E9C41104B220201212800D218FEF792
:10284000FBFE00280AD13368BC331B68EB181A68FA
:10285000002AFCDBEB681B0EA02BDFD00748DDE76E
:10286000631E9C41064B6200E6E7C0464407000831
:1028700018F00000FFFFFFFE0100003004004200DE
:102880000100000C70B50600FFF780FD002833D072
:10289000FDF7E3FD0500022E17D10120FFF79EFF93
:1028A000041E0DD1FFF7B4FD072214494B69934371
:1028B000324013434B61022E14D1FFF723FE002454
:1028C0002800FDF7CEFD200070BD07230B49342002
:1028D0004A699A43043B13434B61FFF719FDFFF725
:1028E000D7FDE1E79120FFF713FDFFF73DFE002044
:1028F000FFF774FF0400E3E7014CE4E70000264023
:10290000030042001A4B1B68190088311A680968D5
:1029100051180968016219008C310968521812684F
:1029200042621A0046321278002A1FD09A68E032BA
:102930001268D2061AD5F222DB68D2019A580260D8
:10294000F022D2019A5842600A4A9A5882600A4A92
:102950009A58C260094A9A580261094A9A584261D3
:10296000084A9A588261084A9B58C3617047C0461A
:102970004407000804780000087800000C78000084
:102980001078000014780000187800001A4B1B68BB
:102990001900883109681A685218016A1160190013
:1029A0008C3109681A685218416A11601A0046325F
:1029B0001278002A1ED09A68E0321268D20619D521
:1029C000F0224168DB68D201995081680B4A995026
:1029D000C1680B4A995001690A4A995041690A4AEB
:1029E00099508169094A9950C169094A9950016809
:1029F000E83299507047C046440700080478000048
:102A0000087800000C7800001078000014780000AE
:102A100018780000F7B50500FFF7A4FC564F0190A9
:102A20007B68002B00D06FE0FDF717FD7B680090FE
:102A3000002B00D07CE0514B07271C682300BA33E1
:102A40001B885F43236AFB181A68002AFCDADB68DC
:102A5000DA001ED51B0F4A481E07FFF753FF22005E
:102A600088321268236847499B181A6801980A40FF
:102A7000212862D19020000102431A6022008C328A
:102A8000126823689B181A680A40104318603C4B70
:102A90003343802292051343226A0024BF18FB604F
:102AA0007C607B68FFF767FC8023344F5B009842B3
:102AB00046D1280001F06CFF3F6807223B00BA3383
:102AC0001E883B6A5643F3181A68002AFCDADD6850
:102AD000EB0003D528010009FFF758FF00222A4B1D
:102AE00000981D403B6AF318DD605A60FDF7B9FCA1
:102AF000002C10D1204B5B68002B03D00821012053
:102B0000FFF7C8FD2000FEBD01210800FFF7C2FD50
:102B1000041E00D188E7184B5B68002B03D002210C
:102B20000120FFF7B7FD194B9C42EBD0184CE9E7A9
:102B300004210120FFF7AEFD7DE7802040009BE7E8
:102B40003B681A00BC32196A1268521811680029D1
:102B500010DBBA331B889B181B68002B0ADB04238D
:102B60000C4A11690B431361012D01D030BFA3E75B
:102B700020BFA1E7054C9FE7B807000844070008FD
:102B800078070008FF00FFFFFFFFFFDF050042009E
:102B9000FF00420000ED00E0024B58694000C00F0A
:102BA0007047C04600002640024B58690723184072
:102BB0007047C046000026400020064B1B68473384
:102BC0001B78834203D0044B986907231840C0B296
:102BD0007047C046440700080000264070B50D4B02
:102BE00004001B680D0047331B78002B11D0FFF742
:102BF000E3FFA0420DD0072207498B69934322408F
:102C000013438B61002D04D0A04202D2C820FFF7ED
:102C10007FFB70BD440700080000264010B504008B
:102C2000FFF7BAFF0A4B1B6847331B78002B09D00C
:102C3000002807D0074B002C05D080229969D205C7
:102C40000A439A6110BD9A6903490A40F9E7C046F0
:102C50004407000800002640FFFFFFBF074A084B5B
:102C6000D058B022E8235205DB00D35C1F2210406D
:102C7000C01A431E9841C0B27047C04600002640AB
:102C80001CFF00000120024B1B68DB0D98437047BE
:102C90000000264010B5FFF7F5FF431E9841054A96
:102CA00003069B18044A10681840C01A4342584152
:102CB000C0B210BD0000045200002640F7B5050068
:102CC000FFF764FB002848D0FDF7C7FBB026244C73
:102CD000244F01907605002D1DD1E823E551DB003E
:102CE0000120F75CFFF77AFDFFB2061E0ED13E0011
:102CF000FFF78EFB1F211C4A0E40A3588B431E4337
:102D0000A650002D1FD1FFF7FDFB2E000198FDF707
:102D1000A8FB3000FEBDFFF7BDFF5023002801D106
:102D2000124BF358E351124B0F49F65C1F236258C4
:102D300003209A43143B13436350F6B2FFF7E8FABB
:102D4000FFF7A6FBD6E70720FFF7E2FAFFF70CFC38
:102D50000020FFF743FD0600D8E7064ED9E7C0463E
:102D600000002640307F00001CFF0000101800000B
:102D70004107000003004200024B58688003C00F67
:102D80007047C04600002640C022802006495200FD
:102D90008B58C0059B009B0803438B5080238858A9
:102DA0001B0603438B5070470000264002B4714657
:102DB00049084900095649008E4402BC7047C04684
:102DC00002B4714649084900095C49008E4402BCBE
:102DD0007047C046002243088B4274D303098B42DC
:102DE0005FD3030A8B4244D3030B8B4228D3030CDB
:102DF0008B420DD3FF22090212BA030C8B4202D37D
:102E00001212090265D0030B8B4219D300E0090AA4
:102E1000C30B8B4201D3CB03C01A5241830B8B42AD
:102E200001D38B03C01A5241430B8B4201D34B0396
:102E3000C01A5241030B8B4201D30B03C01A5241FB
:102E4000C30A8B4201D3CB02C01A5241830A8B4280
:102E500001D38B02C01A5241430A8B4201D34B0269
:102E6000C01A5241030A8B4201D30B02C01A5241CD
:102E7000CDD2C3098B4201D3CB01C01A5241830981
:102E80008B4201D38B01C01A524143098B4201D3BB
:102E90004B01C01A524103098B4201D30B01C01AE6
:102EA0005241C3088B4201D3CB00C01A5241830860
:102EB0008B4201D38B00C01A524143088B4201D38D
:102EC0004B00C01A5241411A00D2014652411046ED
:102ED0007047FFE701B5002000F0F0F802BDC046E2
:102EE0000029F7D076E7704703460B437FD40022D2
:102EF00043088B4274D303098B425FD3030A8B428E
:102F000044D3030B8B4228D3030C8B420DD3FF22F7
:102F1000090212BA030C8B4202D31212090265D0C5
:102F2000030B8B4219D300E0090AC30B8B4201D378
:102F3000CB03C01A5241830B8B4201D38B03C01ABF
:102F40005241430B8B4201D34B03C01A5241030B36
:102F50008B4201D30B03C01A5241C30A8B4201D3E7
:102F6000CB02C01A5241830A8B4201D38B02C01A92
:102F70005241430A8B4201D34B02C01A5241030A09
:102F80008B4201D30B02C01A5241CDD2C3098B42EE
:102F900001D3CB01C01A524183098B4201D38B016B
:102FA000C01A524143098B4201D34B01C01A52410E
:102FB00003098B4201D30B01C01A5241C3088B4253
:102FC00001D3CB00C01A524183088B4201D38B003E
:102FD000C01A524143088B4201D34B00C01A5241E0
:102FE000411A00D201465241104670475DE0CA0FB7
:102FF00000D04942031000D34042534000229C4677
:1030000003098B422DD3030A8B4212D3FC22890180
:1030100012BA030A8B420CD3890192118B4208D356
:10302000890192118B4204D389013AD0921100E0B8
:103030008909C3098B4201D3CB01C01A52418309CC
:103040008B4201D38B01C01A524143098B4201D3F9
:103050004B01C01A524103098B4201D30B01C01A24
:103060005241C3088B4201D3CB00C01A524183089E
:103070008B4201D38B00C01A5241D9D243088B42F4
:1030800001D34B00C01A5241411A00D20146634697
:1030900052415B10104601D34042002B00D54942FB
:1030A000704763465B1000D3404201B5002000F03A
:1030B00005F802BD0029F8D016E770477047C046F2
:1030C000002B11D1002A0FD1002900D1002802D0F5
:1030D0000021C943080007B4024802A14018029029
:1030E00003BDC046D9FFFFFF03B4684601B502988F
:1030F00000F052F8019B9E4602B00CBC7047C046DF
:10310000F0B5CE469946030C9C46130447461B0C6B
:103110001D000E0061460404240C80B50700100C4D
:103120004B436543414360432C0CC01820188C4628
:10313000834203D980235B029846C44449467943BD
:103140005643030C2D042D0C8919634400044019C7
:10315000C918C0BCB946B046F0BDC04670B5002223
:103160000C4B04000D0001F0A5FA002804D120004A
:10317000290001F00FFA70BD064B00222000290043
:1031800000F086FE01F006FA80231B069C46604490
:10319000F1E7C0460000E041F0B557464E464546CF
:1031A000DE46E0B504000D009246994683B08B429E
:1031B00030D82DD04946504601F0A4FA2900060027
:1031C000200001F09FFA331A9846203B34D49B46E6
:1031D00053465A46934042461F00534693401E00B2
:1031E000AF423BD8AF4200D179E05B46A41BBD4162
:1031F000002B00DA76E000220023009201930123E5
:103200005A4693400193012342469340009329E09C
:103210008242CFD900220023009201930C9B002B05
:1032200001D01C605D600098019903B0F0BCBB4602
:10323000B246A946A046F0BD42469B4620239B1AB3
:103240005246DA40414613004A468A401700424639
:103250001F43534693401E00AF42C3D900220023B0
:10326000009201934346002BD8D0FB0772081A4303
:1032700046467B080EE0AB4201D1A2420CD8A41A0C
:103280009D41012024196D410021013E24184D412A
:10329000002E06D0AB42EED9013E24196D41002E1E
:1032A000F8D1009801995B4600196941002B24DB95
:1032B0002B005A464446D3402A00E2401C005B469D
:1032C0001500002B2ADB26009E40330026004746CF
:1032D000BE403200801A9941009001919EE7A342BE
:1032E000BCD882E74246202300219B1A002200918D
:1032F00001920122DA40019285E7424620239B1A7F
:103300002A0046469A402300F340444613432A00CD
:10331000E2401C005B461500002BD4DA42462F0029
:103320002023260097409B1ADE403B003343CDE725
:10333000F0B557464E464546DE46E0B50C031F0045
:103340004B0081469246050085B0240B5B0DCE0FE5
:10335000002B00D152E1D24A934200D16EE1420FDC
:10336000E40014438022120422439046CD4AC50053
:1033700093469B440023994600933C037B005046B0
:10338000240B5B0DFF0F002B00D11AE1C44A9342BE
:1033900000D15EE1420FE400224380242404144360
:1033A000C04AC10094465A466344D31A9B46002043
:1033B00033007B409A464B460F2B27D8BA4A9B00D6
:1033C000D3589F46B246009B022B16D0032B00D148
:1033D00087E2012B00D0D5E00023002200251B0549
:1033E00013435246D20713432800190005B0F0BC1E
:1033F000BB46B246A946A046F0BD00220025A84B18
:10340000EDE7BA46A0460D000090DCE7444500D247
:10341000C4E100D1BFE101235B429C462E0040463F
:103420000025E34423020C0E1C431B0C9946230485
:103430000A021F0C494600920197FFF751FD020056
:103440007A430B04310C804619438A4207D9012381
:103450005B429C460919E0448C4200D801E2881A7C
:103460004946FFF73DFD019A360442430904360CF4
:1034700003000E43B24204D93619013BB44200D8CE
:10348000E9E1B01A4246009E12041A43330C1F00B1
:10349000110C9046029313043204160C32001B0CDC
:1034A0005A4303967B434E437943170CBC469B1902
:1034B00063449E4203D980267602B44661441E0CC2
:1034C000711816041B04360C9E19884202D312D1BF
:1034D000B54210D243465A1E009B9C4665441F00CD
:1034E0009D429B415B421B19C018844200D29EE161
:1034F00000D199E19046AE1BB542AD41401A6D42F4
:10350000401B844200D1D2E14946FFF7E9FC019A11
:103510000B044243310C050019438A4200D96CE187
:10352000881A4946FFF7DCFC019A36044243090435
:10353000360C03000E43B24200D953E10398B61A89
:1035400002002D041D43029F2B041B0C5A437B4396
:103550009C46290C4843130C8444634479439842A5
:1035600003D98020400284466144180C12041B04D5
:10357000120C40189B18864200D200E100D1FBE0FB
:1035800001231D43494B5B44002B00DCAAE06A0782
:1035900000D03DE1E9084246D20106D54246444BFF
:1035A0001A4080239046DB005B44424A934200DD90
:1035B00023E742465B05550752020D43120B5B0D94
:1035C0000DE75146214300D17CE0002C00D1FBE007
:1035D000200001F079F802000B3A1D239B1A524695
:1035E0000100DA40534608398B408C4019001443DF
:1035F000314B58449B4683440020D9E603002343C3
:10360000984644D0002C00D1CFE0200001F05CF8B7
:10361000010002000B391D235B1A49461000D940F6
:10362000083884400B004D46234398468540234B81
:103630009B1A9B460023994600939EE60200224374
:1036400090461DD108229B460223002591460093F7
:1036500093E65146214309D102234A461A43184BA7
:1036600091469C4600240220E344A1E603234A46F7
:103670001A43134B91469C4651460320E34497E678
:103680000C229B460323A0469146009375E6042333
:10369000994600239B460133002500936DE6C04602
:1036A000FF07000001FCFFFF18560010FF03000099
:1036B000FFFFFFFEFE070000F30300000DFCFFFF0D
:1036C00001F8FFFF4A4601231A43914600240120D6
:1036D0006EE6002380229A460025884B12037EE680
:1036E00001256D420122D21A382A00DD74E61F2A14
:1036F00000DCBDE01F214942CB1A4146D9400B00F6
:10370000202A04D041467E4A5A4491400D43290064
:103710004A1E9141194307231D0000220D400B4210
:1037200000D1D0E00F2200230A40042A00D1C7E0D4
:103730000A1D8A42894149425B1811001A0200D4CD
:10374000BEE001230022002549E680224346120301
:10375000134208D0144206D122431203BA460D0088
:10376000664B120B3BE68022434612031A431203B8
:10377000B246624B120B32E6002B00D102E7A619CB
:103780006A1EA64200D289E0864200D29FE000D1A4
:10379000AFE01500F4E6A94200D93CE64346DE0757
:1037A00058086B081E43ED073CE600F08DFF010052
:1037B0000200153120321C2900DC2CE74B4608386A
:1037C00083400025984632E700F07EFF03001A0090
:1037D000153220301C2A00DCFFE65446083B00214D
:1037E0009C4005E73619013BB44200D9A6E6B24237
:1037F00000D8A3E6831E3619A0E60919013D8C42C4
:1038000000D98DE68A4200D88AE6851E091987E626
:103810000F222A40042A00D1BCE6291DA942AD414D
:103820006D42C908A844B6E6AF4200D962E68142BB
:1038300004D800D05EE6AE4200D85BE602235B42CD
:103840009C46009BE0449C4665449D429B415B42F4
:103850001B19C0184FE6B24200D812E6831E361973
:103860000FE68A4200D8FAE5831E98460919F6E564
:10387000244B28005B4441469D409940D0406B1E3C
:103880009D41434601432943D3404A0700D155E7B0
:103890000F220A40042A00D04AE74FE7150086426B
:1038A00000D06DE6009A9A4200D069E66AE6164BAF
:1038B0005B44002B00DC13E701250021A8446AE6E5
:1038C0005D075B021A0BC90800230D4387E50099C9
:1038D000023D4A008A42BF417F423F19F6190092D9
:1038E000DDE78022434612031A431203034B120BF7
:1038F00075E500999942EAD31500D3E7FF07000068
:103900003E0400001E040000FF030000F0B5454621
:10391000DE4657464E46E0B51F000B031B0B9B4689
:103920004D00CB0F04009146984687B06D0D00D135
:10393000CDE1CE4B9D4200D1E9E15A46430FD20082
:103940001343802212041A43C3009A46C84B93467D
:103950009C4600230026654400933C037B004846B8
:10396000240B5B0DFF0F002B00D189E1BF4A93426E
:1039700019D0420FE4002243802424041443BC4A9B
:1039800000219446424663445B190193019B7A40AF
:103990000133C000D2B202930A2E1CDD3A000B2E76
:1039A0005ED0474656E04946B04B2143EB180193A1
:1039B00000292AD18020022200012B0084461643D0
:1039C000424663447A40D2B202930A2E00DD31E2CD
:1039D000002000240221022E26DC013E012E52D8B6
:1039E00002294CD0012900D018E100230024002531
:1039F0001B052343D20713432800190007B0F0BC6E
:103A0000BB46B246A946A046F0BD8021032209016B
:103A10002B008C461643424663447A40D2B202934E
:103A20000A2E00DD28E203210125B540AC46A6267A
:103A30006346F600354033420BD19026B600334240
:103A400018D1B93EFF3E1E421DD0A34682460091CA
:103A500000E0170000993A00022910D05C46504659
:103A60000329BFD180231B031C43240305007F4B84
:103A7000240BBDE7802400227C4B2403B8E70024FC
:103A800000257A4BB4E753461E04360C1F0C330056
:103A9000010C0004000C4343984603007B43994605
:103AA00033004B439C4643460D001B0C9A467D4316
:103AB000CC44D4440095E14504D980235B02994667
:103AC0004D44009563461B0C1D0063461B049C4639
:103AD00043461B041B0C9846634643440393230C44
:103AE000984633002404240C63439C4623007B4304
:103AF000994643465E435F434E446346B2461E0CBE
:103B00005644B14503D980235B0299464F44330C98
:103B100099463B004B4405936346AC461F043F0C5B
:103B20003604F619B444634604935B461B0C9C466A
:103B30005B461F043F0C3B004343994663464343A7
:103B40009A464B4660461B0C9B464843794351447A
:103B500059448A4503D980235B029A4650440B0C92
:103B60009A464B461B041B0C99463B0063430904D1
:103B700045464944994663465C436B439C464B46E5
:103B80001B0C98466F433F1947445044BC4203D92D
:103B900080235B029846C444049B009D984645449C
:103BA000B542B641734298464B461E04059B3C0401
:103BB0009946360CA4194C44A14683466E18C1445C
:103BC0008E428941CB445D4649426D189C42A441D6
:103BD000C1459B41834580418D4289415B4264429E
:103BE0001C434042039B4942014370023F0C18436F
:103BF000E419471EB84164186444F60D610230436D
:103C0000EC0D6E020C433043C90100D4F1E00121F8
:103C1000430801400B43E007184364081549029B21
:103C20008C466344002B00DC97E0410709D00F214C
:103C30000140042905D0011D8142804140422418E1
:103C40000800E10106D58021C9008C460A4B1C40C2
:103C5000029B634409498B4200DD10E76107C508F8
:103C600064025B050D43240B5B0DC1E6FF070000FA
:103C700001FCFFFFFF030000FFFFFFFEFE07000047
:103C80004B46234359D0002C00D1A3E0200000F084
:103C90001BFD010003000B391D22521A4946180072
:103CA000D1404A4608388240844010000C43744A90
:103CB000EB1A9446424663440193019B7A400133D8
:103CC0000021D2B202930A2E00DD67E683E65B464E
:103CD00003439A462AD05B46002B6DD0584600F02D
:103CE000F3FC010003000B391D22521A21001800B9
:103CF0005D46D140083885400A0084402A439346F7
:103D0000A2465F4D0026ED1A0023009325E65B4690
:103D100003439A4605D100239B46023308260093AD
:103D20001BE6032382460C26009316E600239B46DF
:103D300001330426002500930FE642460133019526
:103D40001E43019B7A400133002400200121D2B29E
:103D500002930A2E00DD21E63DE60121C91A382929
:103D600000DD42E61F2947DD1F2625007642F31AB3
:103D7000DD402B00202905D04249029D8C46654438
:103D8000AC402043411E8841184307231D000024F6
:103D9000054003424AD00F2300240340042B42D0A5
:103DA000031D8342804140422418180023023AD563
:103DB0000123002400251BE600F086FC010003001F
:103DC000153120331C298FDD0838002284409246AB
:103DD000A34696E700F078FC01000300153120337C
:103DE0001C2900DC58E702004C46083A00209440A9
:103DF0005DE7019B029311E7234B26009C460300DD
:103E0000029DCB406544AE401E430300AB40581EAC
:103E1000834130001843CC404307C7D00F230340F1
:103E2000042BBDD1C2E765076402240BC008002340
:103E30000543DDE5002502230F2E0CD180245B46CF
:103E4000240323420ED021420CD10C4324033A0018
:103E50000E4B240BCCE50B2E00D0A2E58B46AA46D8
:103E60000093F7E580245B4624031C432403424669
:103E70005546064B240BBBE54D4621000323DBE7EB
:103E80000DFCFFFF3E0400001E040000FF070000C1
:103E9000F0B557464E464546DE46E0B50D000400F7
:103EA000190010002B035B0A620F1A43E3000C0396
:103EB000640A470F2743D04C6E00914683B04A00F6
:103EC000C0009846A246760DED0F520DC90F019025
:103ED000A24200D1B9E0012461408B468D4200D15D
:103EE0008DE0B41AA446002C00DCB7E0002A00D113
:103EF000CBE0C14A964200D186E1802212041743EA
:103F00006246382A00DDA4E11F2A00DD1DE2614679
:103F100020223C00521A010090409440421E9041E1
:103F20006246A0466446D7404A46E1404446D21B1A
:103F300091460C4304431C1BA34292414B46524200
:103F40009B1A9A4653461B0200D42BE153465A0251
:103F5000530A9A465346002B00D166E1504600F0C2
:103F6000B3FB0300083B20222000D21A5146D04068
:103F7000994002009C400A439E4200DD64E19B1B85
:103F8000591C1F2900DDFEE02023100026005B1ACB
:103F90009C409840CE40CA40631E9C4130439246AC
:103FA00000260443630709D00F232340042B05D0C8
:103FB000231DA342A4416442A2441C0053461B0299
:103FC00000D4F2E08C4B01369E4200D10FE1534603
:103FD0008A49E4080B4019005B07234372054C0231
:103FE000240B520D12052243ED072A43180011003D
:103FF00003B0F0BCBB46B246A946A046F0BDB41A19
:10400000A446002C59DD002A00D1B0E0564500D16D
:10401000FAE08022120417436246382A00DDD4E019
:104020001F2A00DCC0E13900203AD1406246202A34
:1040300006D064464022121B3C0094400443019485
:10404000019C621E94410C43C3E03C0004432BD00E
:104050008B468D422ED06A4CA446B4446446002C54
:104060005FD0941BA446002E00D020E14C461C4398
:1040700000D1C7E161464C1E012900D123E25E4D0B
:10408000AC4500D1D8E1A4461AE13A00024300D180
:10409000E4E02200013A012C00D1C3E156498C42F0
:1040A00000D1B1E094462BE7012461408B468D425C
:1040B00000D016E752498C46B4446446002C00D127
:1040C000D3E0911B8C46002E00D15EE14A498A4222
:1040D00000D1BEE180214C4609040C43A146614653
:1040E000382900DDBAE11F2900DD27E22024641A07
:1040F0004946A1401E0088466146A340CE40414645
:104100005C1EA341314319430C0063464946D94024
:104110007F18241884429B415B429A461600BA4499
:104120005DE0384C721C224200D0DFE04A461A4360
:10413000002E00D05CE1002A00D1CFE13A0002431A
:1041400000D17FE11C1A4A46A3428941D21B494251
:10415000521A9246120200D40AE2C41AA0428041C6
:104160004B464042FF1A3B1A9A465D461AE73A0010
:10417000024373D02200013A012C00D1CBE0544518
:1041800042D0944648E710001F3BD840202903D076
:1041900040235B1A9A401443631E9C41002300266F
:1041A0009A460443630700D0FEE65246E3085207EE
:1041B00013435246B446D2080F498C452AD0120305
:1041C000140B62465205520D0CE73C000443621E7C
:1041D0009441E4189C42924152424A4492465346CA
:1041E0001B02DFD5044B01369E4200D0A0E0320016
:1041F00000240023F6E6C046FF070000FFFF7FFF14
:1042000001F8FFFFFE070000DB084A465207134390
:104210004A46D2081900114300D1B5E18024240395
:1042200014432403D54A240BDCE6200000F04CFAAA
:10423000030018331F2B00DC95E62200083882406B
:1042400000249E4200DC9AE6F61ACD4B1A409246B4
:10425000A8E63C000443621E94416CE64A46DB0833
:10426000520713434A46D208A6E7C64C721C2242A4
:1042700000D0ACE04A461A43002E00D005E1002AE7
:1042800000D156E13A00024300D1DBE01C189C4209
:104290009B414F44BA465B429A4453461B0200D4AA
:1042A00080E75246B64B01261A4092467AE7B34C55
:1042B000A24200D1C0E080244D4624042543A946F3
:1042C0006446382C53DC61461F2C00DDCDE02025F0
:1042D0001E002D1B4C46AB40AC40CE405D1EAB419A
:1042E000344323434C46CC403F1B45E04A461C1A0E
:1042F000D11BA3429241524292460A005146521AA1
:104300009246120200D583E05346234300D021E6B3
:104310000022002553E71C189C429B414F44BA469B
:104320005B429A44534601261B0200D43AE7022618
:104330005246934B01211A401300214062080A4360
:10434000DC075B089A4614432CE63900203AD1403A
:104350006246202A06D064464022121B3C0094404C
:1043600004430194019C621E94410C43E3E54946D9
:1043700019430B005C1EA341C41AA0429B415B423F
:10438000FB1A9A465D461600DCE54946194300D102
:10439000AEE0614664460139012C00D1E0E0774C83
:1043A000A44556D08C469AE6614620223C00521A1B
:1043B000944001009040A0466446421E90416246EF
:1043C000E1404446D7400C430443B94401E76B49FC
:1043D0008A4200D10CE7181898429B414F445B4237
:1043E000FB18DC0740085B089A4616000443D9E630
:1043F000002A00D081E03B0003431DD1802200252C
:1044000012030BE7C0087B075D460343FA08D3E6B7
:10441000C41AA04280414B464042FF1A3B1A9A46BA
:104420005D4697E51C1A4A46A3429B41D71B5B4257
:10443000FB1A9A46012685E5C0087B075D460343C3
:10444000FA08E7E64A46DB08520713434A46D20811
:10445000B5E6C0087B070343FA08DBE64946194383
:104460000B00591E8B411C0053E64D46203CE54095
:10447000202905D04024641A4946A1400B439846A0
:1044800043465C1EA3412B4376E7002AE1D03A0065
:10449000DB08024300D1B8E64A46520780241343A2
:1044A0004A462403D208224207D0FE08264204D1FD
:1044B0005D463200C3087F073B43590FDB004907C5
:1044C000DB080B43A6E6C41AA04280414B4640429B
:1044D000FF1A3B1A9A465D46012633E53B0003432B
:1044E00000D115E7C0087B075D460343FA0866E67E
:1044F000C0087B070343FA085EE63A00DB08024384
:1045000000D182E64A465207802413434A462403D8
:10451000D208224207D0FE08264204D15D4632006E
:10452000C3087F073B43590FDB00DB0849070B43F8
:1045300070E6C0087B070343FA0840E64C46203982
:10454000CC406146202906D066464021891B4E4654
:104550008E40334398464346591E8B411C43D8E551
:104560001C18844280414F44BA4640428244D9E6F6
:104570005346234300D1CBE614E6C046FF070000B4
:10458000FFFF7FFFFE0700000023014A1C0029E512
:10459000FF0700000A0030B5134C53000903050063
:1045A000090B00205B0DD20FA34204DD0F488342AC
:1045B00002DD0F4BD01830BD8020400301430D4871
:1045C000C01A1F2808DD0C48C31AD9400B005842F6
:1045D000002AF0D11800EEE7084CC540A446634419
:1045E00099400B002B43F2E7FE0300001D0400007E
:1045F000FFFFFF7F3304000013040000EDFBFFFF0B
:1046000010B5041E10D000F05FF80F4B1B1A0A28DB
:1046100011DC0B222100121AD14015300A035B0570
:104620008440120B5B0D01E0002300221B051343A5
:104630002000190010BD22000B3882405B051203D8
:104640000024120B5B0DF1E71E04000084461000ED
:1046500062468C461900634600E0C0461FB500F074
:1046600005F9002801D40021C8421FBD10B500F093
:1046700055F84042013010BD10B500F0F7F80028A1
:1046800001DB002010BD012010BDC04610B500F0B8
:10469000EDF8002801DD002010BD012010BDC0464E
:1046A00010B500F07DF8002801DC002010BD0120CD
:1046B00010BDC04610B500F073F8002801DA0020E4
:1046C00010BD012010BDC0461C2101231B049842CF
:1046D00001D3000C10391B0A984201D3000A083993
:1046E0001B09984201D30009043902A2105C40184A
:1046F0007047C046040302020101010100000000EE
:104700000000000010B5002903D1FFF7DDFF2030C5
:1047100002E00800FFF7D8FF10BDC046F0B54E46D6
:104720004546DE4657469046E0B517001A03120B81
:104730000500844619480E034C0091465A00DB0FD1
:104740009B46360B640DC90F520D844219D082422C
:1047500010D0012094420ED14E450CD10120C44509
:1047600009D1594517D0002C05D130002843431EEC
:10477000984100E00120F0BCBB46B246A946A046E5
:10478000F0BD330001202B43F5D1A242F3D14B46BB
:104790003B43F0D1E2E70020EDE7C046FF07000011
:1047A000F0B54746CE460400180016001B031B0B4D
:1047B0002D4D4A00994680B543000F03A446B046EC
:1047C0003F0B520DC90F5B0DC00FAA4221D0AB4267
:1047D00013D0002A22D13C43002B02D14D462E4358
:1047E00022D0002C10D0814222D002200139084072
:1047F0000138C0BCB946B046F0BD4D462E4329D164
:10480000002AF0D13C43EED10028F2D101204042F1
:10481000EFE73D0025431DD19342EED0002BE2D1BE
:104820004C462643DFD1E0E70020002CE1D0DCE756
:104830009A420ADCE8DB4F45D7D80ED000204F451E
:10484000D7D20029E2D00800D3E7434258414000C4
:104850000138CEE702204042CBE7C445C5D800204E
:10486000C445C6D2EDE7C046FF070000F0B5474695
:10487000CE460400180016001B031B0B2C4D4A00EB
:10488000994680B543000F03A446B0463F0B520D36
:10489000C90F5B0DC00FAA420DD0AB4210D0002A49
:1048A00027D13C43002B11D14D462E430ED1002081
:1048B000002C15D00EE03D00254310D1934218D1B5
:1048C0004D462E430BD1002A02D13C43002C0BD085
:1048D000814214D0022001390840013800E0022052
:1048E000C0BCB946B046F0BD0028F9D10120404215
:1048F000F6E7002BECD14C462643E9D1EAE79A4291
:1049000004DD4342584140000138E9E79A42EBDBBD
:104910004F45DFD806D000204F45E1D20029E5D031
:104920000800DDE7C445D5D80020C445D8D2F5E756
:10493000FF070000002310B59A4200D110BDCC5CE7
:10494000C4540133F8E730B500240139A24201D143
:10495000002005E0035D01340D5DAB42F6D0581B2D
:1049600030BD03008218934200D1704719700133A3
:10497000F9E70000F8B5C046F8BC08BC9E46704791
:10498000F8B5C046F8BC08BC9E4670470000000061
:1049900001B40248844601BC604700BF1904000806
:1049A00001B40248844601BC604700BFEB02000826
:1049B00007001800010000000300000001000000D3
:1049C000010000000000000005036000040000007A
:1049D000010000000000000001000000060460006B
:1049E00008000000000700087D02001000002140C0
:1049F0000000254000000140000034400000244039
:104A0000000031400000324000001F410000234000
:104A10000000114000001D41101010101010101067
:104A20001010108019005500F000050105013B042D
:104A3000101C01010FC00000000400000101010171
:104A4000011D3A577896000000000008200010125F
:104A500008000000001F00000010000F00200002EE
:104A60003F06080E00080009000A000B24282C301D
:104A700034000000100000009000000088000000DA
:104A8000080000008000000004F0000000F00000BA
:104A9000400200002005A000D00100018001A0011B
:104AA00040019001B0012000100000000000000053
:104AB000000000000000000066666666000000005E
:104AC0000000FFFF000000001C1C1C1C1C1C1C1C08
:104AD00000000000000000000000000066E6EE6636
:104AE000000000000000FFFF000000001C1A1A1A5E
:104AF0001A1A000000000000000000000000000082
:104B000066E66666000000000000FFFF000000008F
:104B10001A1A001C000000007C01000009000000BF
:104B20000D0D01120C000000FF03000080ABCDABA7
:104B3000CD80409C1B04041BFFFFFFFF0000000012
:104B40000410080007070400F216FBE0FBE01F60FA
:104B5000427EF56D720196BE209000001050260432
:104B6000060037D7F401FA00960064004B003200CB
:104B70001E00140003040506020D110083E9001055
:104B8000D5E8001037F0001049EA001007EB0010DC
:104B9000CBEF0010FBEF0010CDF0001095EB0010F4
:104BA00045EC001079EE0010BBEE00101BF1001078
:104BB000B9EF0010AFF00010AFF00010AFF0001030
:104BC00061EF001009EF00104DEF0010C92901102E
:104BD000D5290110553A01103D3B0110693B0110E8
:104BE00047EA001081E900108BF0001005EB00107F
:104BF00053EB0010F3EF001015F0001019F1001046
:104C000041EC0010E1EC0010A7EE0010E1EE001006
:104C100087F10010C3EF001019F1001019F1001016
:104C200019F10010B1EF001019F1001019F1001086
:104C300019F1001019F1001019F1001019F100100C
:104C400019F100100C000800020017000D0001000F
:104C50000100020009000900010001000600020035
:104C600009001800180003000100010009000900F4
:104C700003000300050000008F09011097090110CF
:104C8000930901108D0901106B09011067090110CA
:104C900085090110830901105F09011063090110E2
:104CA0009B09011087090110810901109F0901105A
:104CB0009F0901105D0901108B0901101D210110D0
:104CC000D12401109522011041200110DD120110A4
:104CD0007D0F0110891A0110B9150110D10A0110B8
:104CE000350B01100D260110551E01105115011034
:104CF000FD0E0110151A0110C9610010051F0110E9
:104D0000B92601106D2A0110D92B0110C92C0110F0
:104D10009128011005270110E1290110E127011058
:104D200023280110332801103528011039280110DB
:104D3000AFF00010252801102F2801102D28011098
:104D4000F13E011039380110393E0110E93D0110E2
:104D5000A93E0110953B0110613A0110F93A01108A
:104D6000ED3B011035CD0010853E01105D3801107E
:104D70005138011057380110553801105B380110B7
:104D800053380110AFF00010AFF00010AFF000107A
:104D900069BB001059380110F5520110D7520110AB
:104DA000D7520110D7520110115301105D94011018
:104DB000D75201104D9401106594011055940110C3
:104DC000975701108F570110F9560110F156011035
:104DD000E7520110CF520110C5520110EB520110E1
:104DE000E956011019570110DF5201101157011037
:104DF00071570110D75201102157011009570110A6
:104E000001570110D75201101953011021530110FD
:104E1000295301100000000000000000F5520110AD
:104E2000D7520110D7520110D7520110115301105F
:104E30005D940110D75201104D940110659401103A
:104E400055940110975701108F570110F956011012
:104E5000F1560110E7520110CF520110C552011056
:104E6000EB520110E956011019570110DF520110E1
:104E70001157011071570110D7520110215701101D
:104E80000957011001570110D75201101953011091
:104E90002153011029530110000000000000000000
:104EA000417D0110357D01104D7D01100000000095
:104EB000000000000D7A0110497A0110197A0110E2
:104EC0003D7A0110317A0110257A0110557A0110CE
:104ED000617A0110297D0110917F0110957F0110E9
:104EE000A17F0110797F0110857F01100000000073
:104EF00000000000000000000000000000000000B2
:104F000000000000000000000000000000000000A1
:104F10000000000000000000000000000000000091
:104F20000000000000000000000000000000000081
:104F30000000000000000000000000000000000071
:104F400000000000D7520110000000000000000027
:104F50006D7A0110D1700110916F0110916F0110E5
:104F6000916F01100371011093700110916F011086
:104F700077700110437101108D7001101D710110C7
:104F800013710110136F0110916F0110916F0110D7
:104F9000916F0110976E011061700110BD6E0110CC
:104FA000E37001100B70011019700110A56F011052
:104FB000916F011059710110D16F0110C36F011071
:104FC000916F01104D70011091710110916F0110DE
:104FD0000000000000000000D17C0110C57C011021
:104FE000DD7C011000000000000000005979011074
:104FF0009579011065790110897901107D79011089
:1050000071790110A1790110AD790110B97C0110FD
:10501000CD7E0110D97E0110E57E0110B57E011014
:10502000C17E011000000000000000000000000030
:105030000000000000000000000000000000000070
:105040000000000000000000000000000000000060
:105050000000000000000000000000000000000050
:105060000000000000000000000000000000000040
:10507000000000000000000000000000916F01101F
:105080000000000000000000B9790110FF7301105A
:105090002D7301102D7301102D7301102374011055
:1050A000A97301102D730110F1730110F173011038
:1050B0009B7301103974011027740110A97201103B
:1050C000A5720110897301103B7201102D7201103D
:1050D0002D72011041720110037401105D730110F3
:1050E00071730110317301102D7301106D74011073
:1050F00049730110357301102D7301108D73011068
:105100008974011085740110000000000000000087
:10511000297C01101D7C0110357C0110000000006D
:1051200000000000A1780110A9780110B5780110E5
:10513000C1780110A9780110A9780110CD7801106B
:10514000D9780110117C0110D57D0110E17D01108D
:10515000ED7D0110BD7D0110C97D01100000000032
:10516000000000000000000000000000000000003F
:10517000000000000000000000000000000000002F
:10518000000000000000000000000000000000001F
:10519000000000000000000000000000000000000F
:1051A00000000000000000000000000000000000FF
:1051B000000000002D73011000000000000000003E
:1051C000E578011008000000060F0020200107020A
:1051D0001900000007070E05020220001C12020041
:1051E0000103000000060004000027070000070775
:1051F0000102000203070304000000000000000099
:10520000000000000000000000000000000000009E
:1052100000080000D1700110916F0110916F011012
:10522000916F01100371011093700110916F0110C3
:1052300077700110437101108D7001101D71011004
:1052400013710110136F0110916F0110916F011014
:10525000916F0110976E011061700110BD6E011009
:10526000E37001100B70011019700110A56F01108F
:10527000916F011059710110D16F0110C36F0110AE
:10528000916F01104D70011091710110916F01101B
:105290000000000000000000FF7301102D730110DA
:1052A0002D7301102D73011023740110A9730110C7
:1052B0002D730110F1730110F17301109B73011034
:1052C0003974011027740110A9720110A572011020
:1052D000897301103B7201102D7201102D720110A3
:1052E00041720110037401105D730110717301109C
:1052F000317301102D7301106D7401104973011089
:10530000357301102D7301108D7301108974011014
:10531000857401100000000000000000080000007B
:10532000060F0020200107021900000007070E05E4
:10533000020220001C120200010300000020008075
:105340000000C0000000000400000028220000004F
:10535000000000040000F7FFFF7F000000300000A5
:1053600000000080000000000000000000000000BD
:10537000000000000000000000000000000000002D
:1053800039770110F17801105978011099770110DF
:10539000FF78011081780110697701100D790110F3
:1053A0006578011097770110117901107D7801104F
:1053B00081770110FF780110757801106B7701106B
:1053C000FF7801106D780110AF7701101D79011081
:1053D00089780110B57701102D79011091780110AD
:1053E000916F01102D730110DB520110916F0110AC
:1053F0002D730110DB520110916F01102D730110FC
:10540000DB520110916F01102D730110DB5201105E
:10541000916F01102D730110DB520110916F01107B
:105420002D730110DB520110916F01102D730110CB
:10543000DB520110916F01102D730110DB5201102E
:10544000C37701104579011099780110916F01100F
:105450002D730110DB520110916F01102D7301109B
:10546000DB520110916F01102D730110DB520110FE
:10547000916F01102D730110DB520110916F01101B
:105480002D730110DB5201107D7A0110597C01103F
:10549000017C01107B7A01104D7C0110F97B011019
:1054A000A37A0110917C0110097C0110797A011016
:1054B000417C0110F17B0110916F01102D730110DF
:1054C000DB520110916F01102D730110DB5201109E
:1054D000916F01102D730110DB520110916F0110BB
:1054E0002D730110DB520110916F01102D7301100B
:1054F000DB520110797D0110357E011000000000A3
:10550000877D0110497E0110F53C0110957D011049
:10551000737E0110253D0110597D0110F97D0110A8
:1055200049390110677D0110177E0110653901109E
:105530003030303142383030303130323033303446
:105540003035303630373038303930413042304302
:1055500030443045304631303131313231333134FD
:1055600031353136313731383139314131423143DA
:1055700031443145314632303231323232333234D5
:1055800032353236323732383239324132423243B2
:1055900032443245324633303331333233333334AD
:1055A000333533363337333833393341334233438A
:1055B000334433454142000026002B0030003600C2
:1055C0003C0043004B0055005F006A0077008600F6
:1055D0009600A800BD00D400EE000B012B014F0186
:1055E0007801A601DA01130254029D02EE024A0379
:1055F000B1032404A5043605D9058F065C074208CB
:105600004409650AAA0B160DAF0E79107C12BD1461
:1056100045171C1A4B1DDE200C340010FA33001005
:10562000D833001002340010D8330010D2360010E6
:10563000D833001002340010FA330010FA3300108F
:10564000D236001002340010C4330010C4330010EE
:10565000C43300104A37001000000000FEB50746B2
:1056600000256846058078683C1D34492E46002890
:1056700007D06268002A06D0800702D1207A80070E
:1056800001D00D4658E0FBF7CBF8FBF799FA0190F3
:10569000FBF7F0FAFBF784FA0198FBF795FAFBF7B2
:1056A000D5F800F03DF900283ED1403738790006A2
:1056B000C00F00F0B5F905460004000C34D12049B4
:1056C000084600F08FFF0004000C2DD12289A17A3A
:1056D00020681C4C002806D02060A280E680218132
:1056E0000021FFF73EF9684601F02EFE05461648F8
:1056F0006B460079E2888000001DC1B21B88A0883B
:10570000D418A04206D3C01A801A80B201F0ACFAB5
:10571000044600E00D4C00F0EDFD002C04D100F03B
:10572000C1FB0B480121817000F008F9002D03D066
:1057300001F088FC064806702846FEBD01001600F0
:10574000F5580010CC0700082A080008FFFF0000E9
:105750000001000810B5094CA07801280AD0607833
:10576000012806D12078002803D101F046FC002052
:10577000607010BD01F0FAF810BD000000010008D3
:1057800010B5FBF7D3F9032801D100F0B3FE00F008
:1057900021FA01F05DFE00F057FF024900208870F9
:1057A00010BD00000001000800487047CC07000849
:1057B00070B5044600208A0703D08A07920F891A21
:1057C000091D084B89B2DA889E885518B54206D85B
:1057D0001D68AA182260DA885118D98070BD024865
:1057E00070BD0000CC070008030016000048704799
:1057F000D807000810B501F03FFD10BD10B501F04D
:1058000045FD10BD10B501F049FD10BD0649002849
:1058100008D00649818005210170002141700F21C7
:10582000817000210846704701001600BB0200008D
:1058300010B5FFF78FFF10BD10B501F06DFE10BD64
:1058400010B501F03BFD10BD38B505460020694696
:105850000880002D09D0284601F04CFE0446684619
:1058600001F066FD002C02D015E00C4838BD01F0B7
:105870001DFD2846FFF7F2FE04000CD1284601F07A
:10588000B3FD040007D1FBF751F9032803D100F061
:10589000F7FD00F045FE204638BD0000010016006F
:1058A00038B50446002069460880002C08D0A18D38
:1058B000090A05D1617A102902D8E179102901D9A4
:1058C0000A4838BDE0856946204601F0D9FD054605
:1058D0006946E08D09884018E085002D04D1322208
:1058E00021460348FFF726F8284638BD0100160078
:1058F000D80700087047000010B508490020097853
:10590000002909D006F02CFB044606F0EFF9201A16
:1059100080B281004018C00810BD000008010008D6
:1059200010B5FBF74DFA482202490348FFF702F889
:10593000002010BD1C4B00100A08000810B5FBF732
:105940008DF9FBF71DF910BD10B51A46034C01F097
:1059500017FB002800D00024204610BDFFFF0000E8
:1059600010B501F0DDFB10BD10B501F03BFB10BD23
:10597000010010B5044806D0044A01201070002030
:1059800008F0B8FA002010BDFFFF00000801000871
:1059900070B50024034D20462C7008F0D9FA2C7005
:1059A000204670BD080100080148007870470000DB
:1059B0000801000870B5591C89B24C080B4D6400F1
:1059C0000021451906E028685054000A5618891C21
:1059D000707089B2A142F6D3D80705D0D01820380C
:1059E000D15CC47FD454C17770BD000000103C402E
:1059F00030B50A4C002100195B1E07E0541864788A
:105A0000555C240225430560891C89B29942F5DB67
:105A1000994201D1515C016030BD000000103C4052
:105A2000F1B590B0FF2000F01BFA254FFF207870F1
:105A30002448254900684018406B3C1D400F012652
:105A40000025022801D0667000E06570FBF76EF853
:105A5000032819D026701A48801C4570FFF7C6FE2F
:105A60000446162281180A346846FEF763FF222294
:105A7000214607A8FEF75EFF07A90EC9109813F08C
:105A800033FD040002D017E02570E4E713F082FD37
:105A90003870012000F0E4F913F086FD68460576C1
:105AA000457606A814F024F96846467606A814F050
:105AB0001FF906A801F0DCFC204611B0F0BD000083
:105AC000090100080401000840F03D40F0B5002144
:105AD000094D5B1E08E0441924685718260A7E7099
